:060000000A128A110C280F
:10000800FE00030EF1000A08F2000A128A11A7285E
:100018000A128A110F28F70183010A128A117B2814
:100028008316031788018901831603130F088F3974
:1000380040388F000F142330850083120313850185
:100048000130831603138900831203138901091CE5
:100058002E282F285D28103083160313870083125B
:1000680003138701F03094051412941683160313B2
:10007800141794178312031393010130831603177F
:1000880088008901C330831203139F058316031365
:100098009F13831203131F140330F300F30B52282A
:1000A800831203130C13831603130C170B178B17E8
:1000B8007A281830831603138700831203138701E5
:1000C8001408F03904389400141294168316031394
:1000D80014179413831203138C11831603138C15AE
:1000E8000B178B17880183120313880108000A1263
:1000F8008A1114200A128A11831203139F18852863
:10010800862887289F14091C8A288B288028023073
:10011800F6004530F500A930F400F40B9128F50BF2
:100128009128F60B9128982883160313141C9D28F0
:100138009E288028831203130808930088018028CA
:100148000A128A110C28831203130C1FAC28AD283D
:10015800B9281F0CF000700C0F39003A031DB528A0
:10016800B628B8281E0893000C138C1DBC28BD287F
:10017800C028130888008C1172088A00710E830049
:06018800FE0E7E0E0900D0
:08400000FF3FFF3FFF3FFF3FC0
:04400E00D420FF3F7C
:00000001FF
