:060000000A128A110C280F
:10000800FE00030EF1000A08F2000A128A11932872
:100018000A128A110F28F701F80183010A128A11BE
:100028005D288316031788018901831603130F08B7
:100038008F3940388F000F14233085008312031343
:100048008501013083160313890083120313890184
:100058001030831603138700831203138701831656
:1000680003138601831203138601F03094051412DA
:100078009416831603131417941701308316031765
:1000880088008901C330831203139F058316031365
:100098009F13831203131F140330F300F30B52282A
:1000A800831203130C13831603130C170B178B17E8
:1000B80008000A128A1115200A128A1183120313E2
:1000C8009F186728682869289F1485170430F50049
:1000D8003D30F400F40B6E28F50B6E28732883125C
:1000E80003138513770893008316031314187D28C8
:1000F8007E28782883120313130886000230F6003E
:100108004530F500A930F400F40B8828F50B882851
:10011800F60B88288F2862280A128A110C28831265
:1001280003130C1F98289928A7281F0CF000700C9F
:100138000F39003A031DA128A228A6281E08F0009E
:100148007008F7000C1372088A00710E8300FE0E07
:040158007E0E09000E
:08400000FF3FFF3FFF3FFF3FC0
:04400E00D420FF3F7C
:00000001FF
